{
  "_format": "hh-sol-artifact-1",
  "contractName": "NFTMinter",
  "sourceName": "contracts/NFTMinter.sol",
  "abi": [
    {
      "inputs": [
        {
          "internalType": "address",
          "name": "initialOwner",
          "type": "address"
        }
      ],
      "stateMutability": "nonpayable",
      "type": "constructor"
    },
    {
      "inputs": [],
      "name": "ERC721EnumerableForbiddenBatchMint",
      "type": "error"
    },
    {
      "inputs": [
        {
          "internalType": "address",
          "name": "sender",
          "type": "address"
        },
        {
          "internalType": "uint256",
          "name": "tokenId",
          "type": "uint256"
        },
        {
          "internalType": "address",
          "name": "owner",
          "type": "address"
        }
      ],
      "name": "ERC721IncorrectOwner",
      "type": "error"
    },
    {
      "inputs": [
        {
          "internalType": "address",
          "name": "operator",
          "type": "address"
        },
        {
          "internalType": "uint256",
          "name": "tokenId",
          "type": "uint256"
        }
      ],
      "name": "ERC721InsufficientApproval",
      "type": "error"
    },
    {
      "inputs": [
        {
          "internalType": "address",
          "name": "approver",
          "type": "address"
        }
      ],
      "name": "ERC721InvalidApprover",
      "type": "error"
    },
    {
      "inputs": [
        {
          "internalType": "address",
          "name": "operator",
          "type": "address"
        }
      ],
      "name": "ERC721InvalidOperator",
      "type": "error"
    },
    {
      "inputs": [
        {
          "internalType": "address",
          "name": "owner",
          "type": "address"
        }
      ],
      "name": "ERC721InvalidOwner",
      "type": "error"
    },
    {
      "inputs": [
        {
          "internalType": "address",
          "name": "receiver",
          "type": "address"
        }
      ],
      "name": "ERC721InvalidReceiver",
      "type": "error"
    },
    {
      "inputs": [
        {
          "internalType": "address",
          "name": "sender",
          "type": "address"
        }
      ],
      "name": "ERC721InvalidSender",
      "type": "error"
    },
    {
      "inputs": [
        {
          "internalType": "uint256",
          "name": "tokenId",
          "type": "uint256"
        }
      ],
      "name": "ERC721NonexistentToken",
      "type": "error"
    },
    {
      "inputs": [
        {
          "internalType": "address",
          "name": "owner",
          "type": "address"
        },
        {
          "internalType": "uint256",
          "name": "index",
          "type": "uint256"
        }
      ],
      "name": "ERC721OutOfBoundsIndex",
      "type": "error"
    },
    {
      "inputs": [
        {
          "internalType": "address",
          "name": "owner",
          "type": "address"
        }
      ],
      "name": "OwnableInvalidOwner",
      "type": "error"
    },
    {
      "inputs": [
        {
          "internalType": "address",
          "name": "account",
          "type": "address"
        }
      ],
      "name": "OwnableUnauthorizedAccount",
      "type": "error"
    },
    {
      "anonymous": false,
      "inputs": [
        {
          "indexed": true,
          "internalType": "address",
          "name": "owner",
          "type": "address"
        },
        {
          "indexed": true,
          "internalType": "address",
          "name": "approved",
          "type": "address"
        },
        {
          "indexed": true,
          "internalType": "uint256",
          "name": "tokenId",
          "type": "uint256"
        }
      ],
      "name": "Approval",
      "type": "event"
    },
    {
      "anonymous": false,
      "inputs": [
        {
          "indexed": true,
          "internalType": "address",
          "name": "owner",
          "type": "address"
        },
        {
          "indexed": true,
          "internalType": "address",
          "name": "operator",
          "type": "address"
        },
        {
          "indexed": false,
          "internalType": "bool",
          "name": "approved",
          "type": "bool"
        }
      ],
      "name": "ApprovalForAll",
      "type": "event"
    },
    {
      "anonymous": false,
      "inputs": [
        {
          "indexed": false,
          "internalType": "uint256",
          "name": "_fromTokenId",
          "type": "uint256"
        },
        {
          "indexed": false,
          "internalType": "uint256",
          "name": "_toTokenId",
          "type": "uint256"
        }
      ],
      "name": "BatchMetadataUpdate",
      "type": "event"
    },
    {
      "anonymous": false,
      "inputs": [
        {
          "indexed": false,
          "internalType": "uint256",
          "name": "_tokenId",
          "type": "uint256"
        }
      ],
      "name": "MetadataUpdate",
      "type": "event"
    },
    {
      "anonymous": false,
      "inputs": [
        {
          "indexed": true,
          "internalType": "address",
          "name": "previousOwner",
          "type": "address"
        },
        {
          "indexed": true,
          "internalType": "address",
          "name": "newOwner",
          "type": "address"
        }
      ],
      "name": "OwnershipTransferred",
      "type": "event"
    },
    {
      "anonymous": false,
      "inputs": [
        {
          "indexed": true,
          "internalType": "address",
          "name": "from",
          "type": "address"
        },
        {
          "indexed": true,
          "internalType": "address",
          "name": "to",
          "type": "address"
        },
        {
          "indexed": true,
          "internalType": "uint256",
          "name": "tokenId",
          "type": "uint256"
        }
      ],
      "name": "Transfer",
      "type": "event"
    },
    {
      "inputs": [
        {
          "internalType": "address",
          "name": "to",
          "type": "address"
        },
        {
          "internalType": "string",
          "name": "uri",
          "type": "string"
        }
      ],
      "name": "_safeMint",
      "outputs": [
        {
          "internalType": "uint256",
          "name": "",
          "type": "uint256"
        }
      ],
      "stateMutability": "nonpayable",
      "type": "function"
    },
    {
      "inputs": [
        {
          "internalType": "address",
          "name": "to",
          "type": "address"
        },
        {
          "internalType": "uint256",
          "name": "tokenId",
          "type": "uint256"
        }
      ],
      "name": "approve",
      "outputs": [],
      "stateMutability": "nonpayable",
      "type": "function"
    },
    {
      "inputs": [
        {
          "internalType": "address",
          "name": "owner",
          "type": "address"
        }
      ],
      "name": "balanceOf",
      "outputs": [
        {
          "internalType": "uint256",
          "name": "",
          "type": "uint256"
        }
      ],
      "stateMutability": "view",
      "type": "function"
    },
    {
      "inputs": [
        {
          "internalType": "uint256",
          "name": "tokenId",
          "type": "uint256"
        }
      ],
      "name": "getApproved",
      "outputs": [
        {
          "internalType": "address",
          "name": "",
          "type": "address"
        }
      ],
      "stateMutability": "view",
      "type": "function"
    },
    {
      "inputs": [
        {
          "internalType": "address",
          "name": "owner",
          "type": "address"
        },
        {
          "internalType": "address",
          "name": "operator",
          "type": "address"
        }
      ],
      "name": "isApprovedForAll",
      "outputs": [
        {
          "internalType": "bool",
          "name": "",
          "type": "bool"
        }
      ],
      "stateMutability": "view",
      "type": "function"
    },
    {
      "inputs": [],
      "name": "name",
      "outputs": [
        {
          "internalType": "string",
          "name": "",
          "type": "string"
        }
      ],
      "stateMutability": "view",
      "type": "function"
    },
    {
      "inputs": [],
      "name": "owner",
      "outputs": [
        {
          "internalType": "address",
          "name": "",
          "type": "address"
        }
      ],
      "stateMutability": "view",
      "type": "function"
    },
    {
      "inputs": [
        {
          "internalType": "uint256",
          "name": "tokenId",
          "type": "uint256"
        }
      ],
      "name": "ownerOf",
      "outputs": [
        {
          "internalType": "address",
          "name": "",
          "type": "address"
        }
      ],
      "stateMutability": "view",
      "type": "function"
    },
    {
      "inputs": [],
      "name": "renounceOwnership",
      "outputs": [],
      "stateMutability": "nonpayable",
      "type": "function"
    },
    {
      "inputs": [
        {
          "internalType": "address",
          "name": "from",
          "type": "address"
        },
        {
          "internalType": "address",
          "name": "to",
          "type": "address"
        },
        {
          "internalType": "uint256",
          "name": "tokenId",
          "type": "uint256"
        }
      ],
      "name": "safeTransferFrom",
      "outputs": [],
      "stateMutability": "nonpayable",
      "type": "function"
    },
    {
      "inputs": [
        {
          "internalType": "address",
          "name": "from",
          "type": "address"
        },
        {
          "internalType": "address",
          "name": "to",
          "type": "address"
        },
        {
          "internalType": "uint256",
          "name": "tokenId",
          "type": "uint256"
        },
        {
          "internalType": "bytes",
          "name": "data",
          "type": "bytes"
        }
      ],
      "name": "safeTransferFrom",
      "outputs": [],
      "stateMutability": "nonpayable",
      "type": "function"
    },
    {
      "inputs": [
        {
          "internalType": "address",
          "name": "operator",
          "type": "address"
        },
        {
          "internalType": "bool",
          "name": "approved",
          "type": "bool"
        }
      ],
      "name": "setApprovalForAll",
      "outputs": [],
      "stateMutability": "nonpayable",
      "type": "function"
    },
    {
      "inputs": [
        {
          "internalType": "bytes4",
          "name": "interfaceId",
          "type": "bytes4"
        }
      ],
      "name": "supportsInterface",
      "outputs": [
        {
          "internalType": "bool",
          "name": "",
          "type": "bool"
        }
      ],
      "stateMutability": "view",
      "type": "function"
    },
    {
      "inputs": [],
      "name": "symbol",
      "outputs": [
        {
          "internalType": "string",
          "name": "",
          "type": "string"
        }
      ],
      "stateMutability": "view",
      "type": "function"
    },
    {
      "inputs": [
        {
          "internalType": "uint256",
          "name": "index",
          "type": "uint256"
        }
      ],
      "name": "tokenByIndex",
      "outputs": [
        {
          "internalType": "uint256",
          "name": "",
          "type": "uint256"
        }
      ],
      "stateMutability": "view",
      "type": "function"
    },
    {
      "inputs": [
        {
          "internalType": "address",
          "name": "owner",
          "type": "address"
        },
        {
          "internalType": "uint256",
          "name": "index",
          "type": "uint256"
        }
      ],
      "name": "tokenOfOwnerByIndex",
      "outputs": [
        {
          "internalType": "uint256",
          "name": "",
          "type": "uint256"
        }
      ],
      "stateMutability": "view",
      "type": "function"
    },
    {
      "inputs": [
        {
          "internalType": "uint256",
          "name": "tokenId",
          "type": "uint256"
        }
      ],
      "name": "tokenURI",
      "outputs": [
        {
          "internalType": "string",
          "name": "",
          "type": "string"
        }
      ],
      "stateMutability": "view",
      "type": "function"
    },
    {
      "inputs": [],
      "name": "totalSupply",
      "outputs": [
        {
          "internalType": "uint256",
          "name": "",
          "type": "uint256"
        }
      ],
      "stateMutability": "view",
      "type": "function"
    },
    {
      "inputs": [
        {
          "internalType": "address",
          "name": "from",
          "type": "address"
        },
        {
          "internalType": "address",
          "name": "to",
          "type": "address"
        },
        {
          "internalType": "uint256",
          "name": "tokenId",
          "type": "uint256"
        }
      ],
      "name": "transferFrom",
      "outputs": [],
      "stateMutability": "nonpayable",
      "type": "function"
    },
    {
      "inputs": [
        {
          "internalType": "address",
          "name": "newOwner",
          "type": "address"
        }
      ],
      "name": "transferOwnership",
      "outputs": [],
      "stateMutability": "nonpayable",
      "type": "function"
    }
  ],
  "bytecode": "0x608060405234801561001057600080fd5b5060405161333738038061333783398181016040528101906100329190610272565b806040518060400160405280600981526020017f4e46544d696e74657200000000000000000000000000000000000000000000008152506040518060400160405280600381526020017f4e4654000000000000000000000000000000000000000000000000000000000081525081600090816100ae91906104ef565b5080600190816100be91906104ef565b505050600073ffffffffffffffffffffffffffffffffffffffff168173ffffffffffffffffffffffffffffffffffffffff16036101335760006040517f1e4fbdf700000000000000000000000000000000000000000000000000000000815260040161012a91906105d0565b60405180910390fd5b6101428161014960201b60201c565b50506105eb565b6000600b60009054906101000a900473ffffffffffffffffffffffffffffffffffffffff16905081600b60006101000a81548173ffffffffffffffffffffffffffffffffffffffff021916908373ffffffffffffffffffffffffffffffffffffffff1602179055508173ffffffffffffffffffffffffffffffffffffffff168173ffffffffffffffffffffffffffffffffffffffff167f8be0079c531659141344cd1fd0a4f28419497f9722a3daafe3b4186f6b6457e060405160405180910390a35050565b600080fd5b600073ffffffffffffffffffffffffffffffffffffffff82169050919050565b600061023f82610214565b9050919050565b61024f81610234565b811461025a57600080fd5b50565b60008151905061026c81610246565b92915050565b6000602082840312156102885761028761020f565b5b60006102968482850161025d565b91505092915050565b600081519050919050565b7f4e487b7100000000000000000000000000000000000000000000000000000000600052604160045260246000fd5b7f4e487b7100000000000000000000000000000000000000000000000000000000600052602260045260246000fd5b6000600282049050600182168061032057607f821691505b602082108103610333576103326102d9565b5b50919050565b60008190508160005260206000209050919050565b60006020601f8301049050919050565b600082821b905092915050565b60006008830261039b7fffffffffffffffffffffffffffffffffffffffffffffffffffffffffffffffff8261035e565b6103a5868361035e565b95508019841693508086168417925050509392505050565b6000819050919050565b6000819050919050565b60006103ec6103e76103e2846103bd565b6103c7565b6103bd565b9050919050565b6000819050919050565b610406836103d1565b61041a610412826103f3565b84845461036b565b825550505050565b600090565b61042f610422565b61043a8184846103fd565b505050565b5b8181101561045e57610453600082610427565b600181019050610440565b5050565b601f8211156104a35761047481610339565b61047d8461034e565b8101602085101561048c578190505b6104a06104988561034e565b83018261043f565b50505b505050565b600082821c905092915050565b60006104c6600019846008026104a8565b1980831691505092915050565b60006104df83836104b5565b9150826002028217905092915050565b6104f88261029f565b67ffffffffffffffff811115610511576105106102aa565b5b61051b8254610308565b610526828285610462565b600060209050601f8311600181146105595760008415610547578287015190505b61055185826104d3565b8655506105b9565b601f19841661056786610339565b60005b8281101561058f5784890151825560018201915060208501945060208101905061056a565b868310156105ac57848901516105a8601f8916826104b5565b8355505b6001600288020188555050505b505050505050565b6105ca81610234565b82525050565b60006020820190506105e560008301846105c1565b92915050565b612d3d806105fa6000396000f3fe608060405234801561001057600080fd5b506004361061012c5760003560e01c806370a08231116100ad578063a22cb46511610071578063a22cb46514610357578063b88d4fde14610373578063c87b56dd1461038f578063e985e9c5146103bf578063f2fde38b146103ef5761012c565b806370a08231146102b1578063715018a6146102e157806384f01992146102eb5780638da5cb5b1461031b57806395d89b41146103395761012c565b806323b872dd116100f457806323b872dd146101e95780632f745c591461020557806342842e0e146102355780634f6ccce7146102515780636352211e146102815761012c565b806301ffc9a71461013157806306fdde0314610161578063081812fc1461017f578063095ea7b3146101af57806318160ddd146101cb575b600080fd5b61014b60048036038101906101469190612103565b61040b565b604051610158919061214b565b60405180910390f35b61016961041d565b60405161017691906121f6565b60405180910390f35b6101996004803603810190610194919061224e565b6104af565b6040516101a691906122bc565b60405180910390f35b6101c960048036038101906101c49190612303565b6104cb565b005b6101d36104e1565b6040516101e09190612352565b60405180910390f35b61020360048036038101906101fe919061236d565b6104ee565b005b61021f600480360381019061021a9190612303565b6105f0565b60405161022c9190612352565b60405180910390f35b61024f600480360381019061024a919061236d565b610699565b005b61026b6004803603810190610266919061224e565b6106b9565b6040516102789190612352565b60405180910390f35b61029b6004803603810190610296919061224e565b61072f565b6040516102a891906122bc565b60405180910390f35b6102cb60048036038101906102c691906123c0565b610741565b6040516102d89190612352565b60405180910390f35b6102e96107fb565b005b61030560048036038101906103009190612522565b61080f565b6040516103129190612352565b60405180910390f35b610323610852565b60405161033091906122bc565b60405180910390f35b61034161087c565b60405161034e91906121f6565b60405180910390f35b610371600480360381019061036c91906125aa565b61090e565b005b61038d6004803603810190610388919061268b565b610924565b005b6103a960048036038101906103a4919061224e565b610949565b6040516103b691906121f6565b60405180910390f35b6103d960048036038101906103d4919061270e565b61095b565b6040516103e6919061214b565b60405180910390f35b610409600480360381019061040491906123c0565b6109ef565b005b600061041682610a75565b9050919050565b60606000805461042c9061277d565b80601f01602080910402602001604051908101604052809291908181526020018280546104589061277d565b80156104a55780601f1061047a576101008083540402835291602001916104a5565b820191906000526020600020905b81548152906001019060200180831161048857829003601f168201915b5050505050905090565b60006104ba82610ad6565b506104c482610b5e565b9050919050565b6104dd82826104d8610b9b565b610ba3565b5050565b6000600880549050905090565b600073ffffffffffffffffffffffffffffffffffffffff168273ffffffffffffffffffffffffffffffffffffffff16036105605760006040517f64a0ae9200000000000000000000000000000000000000000000000000000000815260040161055791906122bc565b60405180910390fd5b6000610574838361056f610b9b565b610bb5565b90508373ffffffffffffffffffffffffffffffffffffffff168173ffffffffffffffffffffffffffffffffffffffff16146105ea578382826040517f64283d7b0000000000000000000000000000000000000000000000000000000081526004016105e1939291906127ae565b60405180910390fd5b50505050565b60006105fb83610741565b82106106405782826040517fa57d13dc0000000000000000000000000000000000000000000000000000000081526004016106379291906127e5565b60405180910390fd5b600660008473ffffffffffffffffffffffffffffffffffffffff1673ffffffffffffffffffffffffffffffffffffffff168152602001908152602001600020600083815260200190815260200160002054905092915050565b6106b483838360405180602001604052806000815250610924565b505050565b60006106c36104e1565b8210610709576000826040517fa57d13dc0000000000000000000000000000000000000000000000000000000081526004016107009291906127e5565b60405180910390fd5b6008828154811061071d5761071c61280e565b5b90600052602060002001549050919050565b600061073a82610ad6565b9050919050565b60008073ffffffffffffffffffffffffffffffffffffffff168273ffffffffffffffffffffffffffffffffffffffff16036107b45760006040517f89c62b640000000000000000000000000000000000000000000000000000000081526004016107ab91906122bc565b60405180910390fd5b600360008373ffffffffffffffffffffffffffffffffffffffff1673ffffffffffffffffffffffffffffffffffffffff168152602001908152602001600020549050919050565b610803610bcb565b61080d6000610c52565b565b6000610819610bcb565b6000600c600081548092919061082e9061286c565b91905055905061083e8482610d18565b6108488184610d36565b8091505092915050565b6000600b60009054906101000a900473ffffffffffffffffffffffffffffffffffffffff16905090565b60606001805461088b9061277d565b80601f01602080910402602001604051908101604052809291908181526020018280546108b79061277d565b80156109045780601f106108d957610100808354040283529160200191610904565b820191906000526020600020905b8154815290600101906020018083116108e757829003601f168201915b5050505050905090565b610920610919610b9b565b8383610d92565b5050565b61092f8484846104ee565b61094361093a610b9b565b85858585610f01565b50505050565b6060610954826110b2565b9050919050565b6000600560008473ffffffffffffffffffffffffffffffffffffffff1673ffffffffffffffffffffffffffffffffffffffff16815260200190815260200160002060008373ffffffffffffffffffffffffffffffffffffffff1673ffffffffffffffffffffffffffffffffffffffff16815260200190815260200160002060009054906101000a900460ff16905092915050565b6109f7610bcb565b600073ffffffffffffffffffffffffffffffffffffffff168173ffffffffffffffffffffffffffffffffffffffff1603610a695760006040517f1e4fbdf7000000000000000000000000000000000000000000000000000000008152600401610a6091906122bc565b60405180910390fd5b610a7281610c52565b50565b6000634906490660e01b7bffffffffffffffffffffffffffffffffffffffffffffffffffffffff1916827bffffffffffffffffffffffffffffffffffffffffffffffffffffffff19161480610acf5750610ace826111c5565b5b9050919050565b600080610ae28361123f565b9050600073ffffffffffffffffffffffffffffffffffffffff168173ffffffffffffffffffffffffffffffffffffffff1603610b5557826040517f7e273289000000000000000000000000000000000000000000000000000000008152600401610b4c9190612352565b60405180910390fd5b80915050919050565b60006004600083815260200190815260200160002060009054906101000a900473ffffffffffffffffffffffffffffffffffffffff169050919050565b600033905090565b610bb0838383600161127c565b505050565b6000610bc2848484611441565b90509392505050565b610bd3610b9b565b73ffffffffffffffffffffffffffffffffffffffff16610bf1610852565b73ffffffffffffffffffffffffffffffffffffffff1614610c5057610c14610b9b565b6040517f118cdaa7000000000000000000000000000000000000000000000000000000008152600401610c4791906122bc565b60405180910390fd5b565b6000600b60009054906101000a900473ffffffffffffffffffffffffffffffffffffffff16905081600b60006101000a81548173ffffffffffffffffffffffffffffffffffffffff021916908373ffffffffffffffffffffffffffffffffffffffff1602179055508173ffffffffffffffffffffffffffffffffffffffff168173ffffffffffffffffffffffffffffffffffffffff167f8be0079c531659141344cd1fd0a4f28419497f9722a3daafe3b4186f6b6457e060405160405180910390a35050565b610d3282826040518060200160405280600081525061155e565b5050565b80600a60008481526020019081526020016000209081610d569190612a60565b507ff8e1a15aba9398e019f0b49df1a4fde98ee17ae345cb5f6b5e2c27f5033e8ce782604051610d869190612352565b60405180910390a15050565b600073ffffffffffffffffffffffffffffffffffffffff168273ffffffffffffffffffffffffffffffffffffffff1603610e0357816040517f5b08ba18000000000000000000000000000000000000000000000000000000008152600401610dfa91906122bc565b60405180910390fd5b80600560008573ffffffffffffffffffffffffffffffffffffffff1673ffffffffffffffffffffffffffffffffffffffff16815260200190815260200160002060008473ffffffffffffffffffffffffffffffffffffffff1673ffffffffffffffffffffffffffffffffffffffff16815260200190815260200160002060006101000a81548160ff0219169083151502179055508173ffffffffffffffffffffffffffffffffffffffff168373ffffffffffffffffffffffffffffffffffffffff167f17307eab39ab6107e8899845ad3d59bd9653f200f220920489ca2b5937696c3183604051610ef4919061214b565b60405180910390a3505050565b60008373ffffffffffffffffffffffffffffffffffffffff163b11156110ab578273ffffffffffffffffffffffffffffffffffffffff1663150b7a02868685856040518563ffffffff1660e01b8152600401610f609493929190612b87565b6020604051808303816000875af1925050508015610f9c57506040513d601f19601f82011682018060405250810190610f999190612be8565b60015b611020573d8060008114610fcc576040519150601f19603f3d011682016040523d82523d6000602084013e610fd1565b606091505b50600081510361101857836040517f64a0ae9200000000000000000000000000000000000000000000000000000000815260040161100f91906122bc565b60405180910390fd5b805181602001fd5b63150b7a0260e01b7bffffffffffffffffffffffffffffffffffffffffffffffffffffffff1916817bffffffffffffffffffffffffffffffffffffffffffffffffffffffff1916146110a957836040517f64a0ae920000000000000000000000000000000000000000000000000000000081526004016110a091906122bc565b60405180910390fd5b505b5050505050565b60606110bd82610ad6565b506000600a600084815260200190815260200160002080546110de9061277d565b80601f016020809104026020016040519081016040528092919081815260200182805461110a9061277d565b80156111575780601f1061112c57610100808354040283529160200191611157565b820191906000526020600020905b81548152906001019060200180831161113a57829003601f168201915b505050505090506000611168611582565b9050600081510361117d5781925050506111c0565b6000825111156111b257808260405160200161119a929190612c51565b604051602081830303815290604052925050506111c0565b6111bb84611599565b925050505b919050565b60007f780e9d63000000000000000000000000000000000000000000000000000000007bffffffffffffffffffffffffffffffffffffffffffffffffffffffff1916827bffffffffffffffffffffffffffffffffffffffffffffffffffffffff19161480611238575061123782611602565b5b9050919050565b60006002600083815260200190815260200160002060009054906101000a900473ffffffffffffffffffffffffffffffffffffffff169050919050565b80806112b55750600073ffffffffffffffffffffffffffffffffffffffff168273ffffffffffffffffffffffffffffffffffffffff1614155b156113e95760006112c584610ad6565b9050600073ffffffffffffffffffffffffffffffffffffffff168373ffffffffffffffffffffffffffffffffffffffff161415801561133057508273ffffffffffffffffffffffffffffffffffffffff168173ffffffffffffffffffffffffffffffffffffffff1614155b80156113435750611341818461095b565b155b1561138557826040517fa9fbf51f00000000000000000000000000000000000000000000000000000000815260040161137c91906122bc565b60405180910390fd5b81156113e757838573ffffffffffffffffffffffffffffffffffffffff168273ffffffffffffffffffffffffffffffffffffffff167f8c5be1e5ebec7d5bd14f71427d1e84f3dd0314c0f7b2291e5b200ac8c7c3b92560405160405180910390a45b505b836004600085815260200190815260200160002060006101000a81548173ffffffffffffffffffffffffffffffffffffffff021916908373ffffffffffffffffffffffffffffffffffffffff16021790555050505050565b60008061144f8585856116e4565b9050600073ffffffffffffffffffffffffffffffffffffffff168173ffffffffffffffffffffffffffffffffffffffff16036114935761148e846118fe565b6114d2565b8473ffffffffffffffffffffffffffffffffffffffff168173ffffffffffffffffffffffffffffffffffffffff16146114d1576114d08185611947565b5b5b600073ffffffffffffffffffffffffffffffffffffffff168573ffffffffffffffffffffffffffffffffffffffff16036115145761150f84611a32565b611553565b8473ffffffffffffffffffffffffffffffffffffffff168173ffffffffffffffffffffffffffffffffffffffff1614611552576115518585611b03565b5b5b809150509392505050565b6115688383611b8e565b61157d611573610b9b565b6000858585610f01565b505050565b606060405180602001604052806000815250905090565b60606115a482610ad6565b5060006115af611582565b905060008151116115cf57604051806020016040528060008152506115fa565b806115d984611c87565b6040516020016115ea929190612c51565b6040516020818303038152906040525b915050919050565b60007f80ac58cd000000000000000000000000000000000000000000000000000000007bffffffffffffffffffffffffffffffffffffffffffffffffffffffff1916827bffffffffffffffffffffffffffffffffffffffffffffffffffffffff191614806116cd57507f5b5e139f000000000000000000000000000000000000000000000000000000007bffffffffffffffffffffffffffffffffffffffffffffffffffffffff1916827bffffffffffffffffffffffffffffffffffffffffffffffffffffffff1916145b806116dd57506116dc82611d55565b5b9050919050565b6000806116f08461123f565b9050600073ffffffffffffffffffffffffffffffffffffffff168373ffffffffffffffffffffffffffffffffffffffff161461173257611731818486611dbf565b5b600073ffffffffffffffffffffffffffffffffffffffff168173ffffffffffffffffffffffffffffffffffffffff16146117c35761177460008560008061127c565b6001600360008373ffffffffffffffffffffffffffffffffffffffff1673ffffffffffffffffffffffffffffffffffffffff168152602001908152602001600020600082825403925050819055505b600073ffffffffffffffffffffffffffffffffffffffff168573ffffffffffffffffffffffffffffffffffffffff1614611846576001600360008773ffffffffffffffffffffffffffffffffffffffff1673ffffffffffffffffffffffffffffffffffffffff168152602001908152602001600020600082825401925050819055505b846002600086815260200190815260200160002060006101000a81548173ffffffffffffffffffffffffffffffffffffffff021916908373ffffffffffffffffffffffffffffffffffffffff160217905550838573ffffffffffffffffffffffffffffffffffffffff168273ffffffffffffffffffffffffffffffffffffffff167fddf252ad1be2c89b69c2b068fc378daa952ba7f163c4a11628f55a4df523b3ef60405160405180910390a4809150509392505050565b6008805490506009600083815260200190815260200160002081905550600881908060018154018082558091505060019003906000526020600020016000909190919091505550565b600061195283610741565b90506000600760008481526020019081526020016000205490506000600660008673ffffffffffffffffffffffffffffffffffffffff1673ffffffffffffffffffffffffffffffffffffffff16815260200190815260200160002090508282146119fe5760008160008581526020019081526020016000205490508082600085815260200190815260200160002081905550826007600083815260200190815260200160002081905550505b6007600085815260200190815260200160002060009055806000848152602001908152602001600020600090555050505050565b60006001600880549050611a469190612c75565b9050600060096000848152602001908152602001600020549050600060088381548110611a7657611a7561280e565b5b906000526020600020015490508060088381548110611a9857611a9761280e565b5b906000526020600020018190555081600960008381526020019081526020016000208190555060096000858152602001908152602001600020600090556008805480611ae757611ae6612ca9565b5b6001900381819060005260206000200160009055905550505050565b60006001611b1084610741565b611b1a9190612c75565b905081600660008573ffffffffffffffffffffffffffffffffffffffff1673ffffffffffffffffffffffffffffffffffffffff168152602001908152602001600020600083815260200190815260200160002081905550806007600084815260200190815260200160002081905550505050565b600073ffffffffffffffffffffffffffffffffffffffff168273ffffffffffffffffffffffffffffffffffffffff1603611c005760006040517f64a0ae92000000000000000000000000000000000000000000000000000000008152600401611bf791906122bc565b60405180910390fd5b6000611c0e83836000610bb5565b9050600073ffffffffffffffffffffffffffffffffffffffff168173ffffffffffffffffffffffffffffffffffffffff1614611c825760006040517f73c6ac6e000000000000000000000000000000000000000000000000000000008152600401611c7991906122bc565b60405180910390fd5b505050565b606060006001611c9684611e83565b01905060008167ffffffffffffffff811115611cb557611cb46123f7565b5b6040519080825280601f01601f191660200182016040528015611ce75781602001600182028036833780820191505090505b509050600082602001820190505b600115611d4a578080600190039150507f3031323334353637383961626364656600000000000000000000000000000000600a86061a8153600a8581611d3e57611d3d612cd8565b5b04945060008503611cf5575b819350505050919050565b60007f01ffc9a7000000000000000000000000000000000000000000000000000000007bffffffffffffffffffffffffffffffffffffffffffffffffffffffff1916827bffffffffffffffffffffffffffffffffffffffffffffffffffffffff1916149050919050565b611dca838383611fd6565b611e7e57600073ffffffffffffffffffffffffffffffffffffffff168373ffffffffffffffffffffffffffffffffffffffff1603611e3f57806040517f7e273289000000000000000000000000000000000000000000000000000000008152600401611e369190612352565b60405180910390fd5b81816040517f177e802f000000000000000000000000000000000000000000000000000000008152600401611e759291906127e5565b60405180910390fd5b505050565b600080600090507a184f03e93ff9f4daa797ed6e38ed64bf6a1f0100000000000000008310611ee1577a184f03e93ff9f4daa797ed6e38ed64bf6a1f0100000000000000008381611ed757611ed6612cd8565b5b0492506040810190505b6d04ee2d6d415b85acef81000000008310611f1e576d04ee2d6d415b85acef81000000008381611f1457611f13612cd8565b5b0492506020810190505b662386f26fc100008310611f4d57662386f26fc100008381611f4357611f42612cd8565b5b0492506010810190505b6305f5e1008310611f76576305f5e1008381611f6c57611f6b612cd8565b5b0492506008810190505b6127108310611f9b576127108381611f9157611f90612cd8565b5b0492506004810190505b60648310611fbe5760648381611fb457611fb3612cd8565b5b0492506002810190505b600a8310611fcd576001810190505b80915050919050565b60008073ffffffffffffffffffffffffffffffffffffffff168373ffffffffffffffffffffffffffffffffffffffff161415801561208e57508273ffffffffffffffffffffffffffffffffffffffff168473ffffffffffffffffffffffffffffffffffffffff16148061204f575061204e848461095b565b5b8061208d57508273ffffffffffffffffffffffffffffffffffffffff1661207583610b5e565b73ffffffffffffffffffffffffffffffffffffffff16145b5b90509392505050565b6000604051905090565b600080fd5b600080fd5b60007fffffffff0000000000000000000000000000000000000000000000000000000082169050919050565b6120e0816120ab565b81146120eb57600080fd5b50565b6000813590506120fd816120d7565b92915050565b600060208284031215612119576121186120a1565b5b6000612127848285016120ee565b91505092915050565b60008115159050919050565b61214581612130565b82525050565b6000602082019050612160600083018461213c565b92915050565b600081519050919050565b600082825260208201905092915050565b60005b838110156121a0578082015181840152602081019050612185565b60008484015250505050565b6000601f19601f8301169050919050565b60006121c882612166565b6121d28185612171565b93506121e2818560208601612182565b6121eb816121ac565b840191505092915050565b6000602082019050818103600083015261221081846121bd565b905092915050565b6000819050919050565b61222b81612218565b811461223657600080fd5b50565b60008135905061224881612222565b92915050565b600060208284031215612264576122636120a1565b5b600061227284828501612239565b91505092915050565b600073ffffffffffffffffffffffffffffffffffffffff82169050919050565b60006122a68261227b565b9050919050565b6122b68161229b565b82525050565b60006020820190506122d160008301846122ad565b92915050565b6122e08161229b565b81146122eb57600080fd5b50565b6000813590506122fd816122d7565b92915050565b6000806040838503121561231a576123196120a1565b5b6000612328858286016122ee565b925050602061233985828601612239565b9150509250929050565b61234c81612218565b82525050565b60006020820190506123676000830184612343565b92915050565b600080600060608486031215612386576123856120a1565b5b6000612394868287016122ee565b93505060206123a5868287016122ee565b92505060406123b686828701612239565b9150509250925092565b6000602082840312156123d6576123d56120a1565b5b60006123e4848285016122ee565b91505092915050565b600080fd5b600080fd5b7f4e487b7100000000000000000000000000000000000000000000000000000000600052604160045260246000fd5b61242f826121ac565b810181811067ffffffffffffffff8211171561244e5761244d6123f7565b5b80604052505050565b6000612461612097565b905061246d8282612426565b919050565b600067ffffffffffffffff82111561248d5761248c6123f7565b5b612496826121ac565b9050602081019050919050565b82818337600083830152505050565b60006124c56124c084612472565b612457565b9050828152602081018484840111156124e1576124e06123f2565b5b6124ec8482856124a3565b509392505050565b600082601f830112612509576125086123ed565b5b81356125198482602086016124b2565b91505092915050565b60008060408385031215612539576125386120a1565b5b6000612547858286016122ee565b925050602083013567ffffffffffffffff811115612568576125676120a6565b5b612574858286016124f4565b9150509250929050565b61258781612130565b811461259257600080fd5b50565b6000813590506125a48161257e565b92915050565b600080604083850312156125c1576125c06120a1565b5b60006125cf858286016122ee565b92505060206125e085828601612595565b9150509250929050565b600067ffffffffffffffff821115612605576126046123f7565b5b61260e826121ac565b9050602081019050919050565b600061262e612629846125ea565b612457565b90508281526020810184848401111561264a576126496123f2565b5b6126558482856124a3565b509392505050565b600082601f830112612672576126716123ed565b5b813561268284826020860161261b565b91505092915050565b600080600080608085870312156126a5576126a46120a1565b5b60006126b3878288016122ee565b94505060206126c4878288016122ee565b93505060406126d587828801612239565b925050606085013567ffffffffffffffff8111156126f6576126f56120a6565b5b6127028782880161265d565b91505092959194509250565b60008060408385031215612725576127246120a1565b5b6000612733858286016122ee565b9250506020612744858286016122ee565b9150509250929050565b7f4e487b7100000000000000000000000000000000000000000000000000000000600052602260045260246000fd5b6000600282049050600182168061279557607f821691505b6020821081036127a8576127a761274e565b5b50919050565b60006060820190506127c360008301866122ad565b6127d06020830185612343565b6127dd60408301846122ad565b949350505050565b60006040820190506127fa60008301856122ad565b6128076020830184612343565b9392505050565b7f4e487b7100000000000000000000000000000000000000000000000000000000600052603260045260246000fd5b7f4e487b7100000000000000000000000000000000000000000000000000000000600052601160045260246000fd5b600061287782612218565b91507fffffffffffffffffffffffffffffffffffffffffffffffffffffffffffffffff82036128a9576128a861283d565b5b600182019050919050565b60008190508160005260206000209050919050565b60006020601f8301049050919050565b600082821b905092915050565b6000600883026129167fffffffffffffffffffffffffffffffffffffffffffffffffffffffffffffffff826128d9565b61292086836128d9565b95508019841693508086168417925050509392505050565b6000819050919050565b600061295d61295861295384612218565b612938565b612218565b9050919050565b6000819050919050565b61297783612942565b61298b61298382612964565b8484546128e6565b825550505050565b600090565b6129a0612993565b6129ab81848461296e565b505050565b5b818110156129cf576129c4600082612998565b6001810190506129b1565b5050565b601f821115612a14576129e5816128b4565b6129ee846128c9565b810160208510156129fd578190505b612a11612a09856128c9565b8301826129b0565b50505b505050565b600082821c905092915050565b6000612a3760001984600802612a19565b1980831691505092915050565b6000612a508383612a26565b9150826002028217905092915050565b612a6982612166565b67ffffffffffffffff811115612a8257612a816123f7565b5b612a8c825461277d565b612a978282856129d3565b600060209050601f831160018114612aca5760008415612ab8578287015190505b612ac28582612a44565b865550612b2a565b601f198416612ad8866128b4565b60005b82811015612b0057848901518255600182019150602085019450602081019050612adb565b86831015612b1d5784890151612b19601f891682612a26565b8355505b6001600288020188555050505b505050505050565b600081519050919050565b600082825260208201905092915050565b6000612b5982612b32565b612b638185612b3d565b9350612b73818560208601612182565b612b7c816121ac565b840191505092915050565b6000608082019050612b9c60008301876122ad565b612ba960208301866122ad565b612bb66040830185612343565b8181036060830152612bc88184612b4e565b905095945050505050565b600081519050612be2816120d7565b92915050565b600060208284031215612bfe57612bfd6120a1565b5b6000612c0c84828501612bd3565b91505092915050565b600081905092915050565b6000612c2b82612166565b612c358185612c15565b9350612c45818560208601612182565b80840191505092915050565b6000612c5d8285612c20565b9150612c698284612c20565b91508190509392505050565b6000612c8082612218565b9150612c8b83612218565b9250828203905081811115612ca357612ca261283d565b5b92915050565b7f4e487b7100000000000000000000000000000000000000000000000000000000600052603160045260246000fd5b7f4e487b7100000000000000000000000000000000000000000000000000000000600052601260045260246000fdfea2646970667358221220cfee091e35d27146dca1fce567c7ff6f37cab4440c9239b1efed7bd2381173e864736f6c634300081c0033",
  "linkReferences": {},
  "deployedLinkReferences": {}
}